:100000004A2C932C9A2C9F2CA42CA92CAE2CF42C8B
:10001000F42CF42CF42CB32CB82CBD2CC22CC72CF3
:0C002000CC2CF42CF42CF42CF42CD12C5F
:10087C000030831203138C1A013008008312031307
:10088C008C1E442C1A0808008313203084003D3041
:10089C0051248301682E64008001840A0406031924
:1008AC0000340406522C8312031306108611061210
:1008BC0086120613861308003E24003A031908001A
:1008CC004424F100710883120313BB003B08FF3A68
:1008DC00031D772C3B08F1007108B800BC01BC0A61
:1008EC0008003C08013A031D842C3B08F1007108F8
:1008FC00B9000230F1007108BC0008003C08023A53
:10090C00031D08003B08F1007108BA000330F10028
:10091C007108BC0092240800E42C831203133A08DB
:10092C00F0007008AC0008003A08F0007008AD0048
:10093C0008003A08F0007008AE0008003A08F00011
:10094C007008AF0008003A08F0007008AF0008000B
:10095C003A08F0007008B10008003A08F00070087E
:10096C00B20008003A08F0007008B30008003A081A
:10097C00F0007008B40008003A08F0007008B500E8
:10098C0008003A08F0007008B60008003A08F000B9
:10099C007008B7000800B201B301B401B501B6018B
:1009AC00B701AC01AD01AE01AF01B001B101A001C5
:1009BC00A101A201A301A401A50108008312031344
:1009CC0039089C3E031C08008400153004020318EF
:1009DC00080000308A0001300407820008008312EE
:1009EC000313BE01F31F072DF009F109F209F309F6
:1009FC00F00A0319F10A0319F20A0319F30ABE01EA
:100A0C00BE0AF71F182DF409F509F609F709F40ABF
:100A1C000319F50A0319F60A0319F70A0130F8004D
:100A2C007808BE060030C2000030C1000030C000A3
:100A3C000030BF00730872047104700403196D2D2B
:100A4C00BD01BD0AF31B382D0130F8000310F00D69
:100A5C00F10DF20DF30DF80B2C2D0130F800780888
:100A6C00BD07282D0130F8000310BF0DC00DC10DBE
:100A7C00C20DF80B3A2D73087702031D4F2D720827
:100A8C007602031D4F2D71087502031D4F2D700842
:100A9C007402031C602D7008F4027108031C710FA2
:100AAC00F5027208031C720FF6027308031C730F15
:100ABC00F7023F1401300310F30CF20CF10CF00CA4
:100ACC00FF3E031D612D0130BD02031D382D3E0874
:100ADC0003197B2DBF09C009C109C209BF0A03193B
:100AEC00C00A0319C10A0319C20A4208F3004108DB
:100AFC00F2004008F1003F08F000080083120313D5
:100B0C004308C7004408C8004508C9004608CA0085
:100B1C0006300310C70DC80DC90DCA0DFF3E031DCD
:100B2C008F2D4A08F3004908F2004808F1004708E5
:100B3C00F0000030CB000930CC003D30CD0000304F
:100B4C00CE004308CF004408D0004508D100460829
:100B5C00D20006300310CF0DD00DD10DD20DFF3EBB
:100B6C00031DB02DCF09D009D109D209CF0A031921
:100B7C00D00A0319D10A0319D20A4F08CB0750081F
:100B8C000318500FCA2DCB2DCC0751080318510F49
:100B9C00D02DD12DCD0752080318520ACE074E087E
:100BAC00F7004D08F6004C08F5004B08F400F5244E
:100BBC007108FA01FA077008F901F90701307A0295
:100BCC00003003197902031C4E2E831203134308C1
:100BDC00C7004408C8004508C9004608CA000430CC
:100BEC000310C70DC80DC90DCA0DFF3E031DF62D10
:100BFC004A08F3004908F2004808F1004708F000E1
:100C0C000030CB000930CC003D30CD000030CE00A0
:100C1C004308CF004408D0004508D1004608D20054
:100C2C0004300310CF0DD00DD10DD20DFF3E031D9E
:100C3C00172ECF09D009D109D209CF0A0319D00A2E
:100C4C000319D10A0319D20A4F08CB07500803180D
:100C5C00500F312E322ECC0751080318510F372E5E
:100C6C00382ECD0752080318520ACE074E08F7004B
:100C7C004D08F6004C08F5004B08F400F5247108FB
:100C8C00FA01FA077008F901F9078316031318150E
:100C9C0001307A0200300319790203180800790830
:100CAC0083160313990018128312031398178316D3
:100CBC0003138614061583120313181683160313D5
:100CCC009816080083120313D301D401D301D40165
:100CDC005408803AFF0080307F02031D772E0530C8
:100CEC00530203189D2E831203135308323E8400C3
:100CFC00831380015308203E8400800153082C3E4E
:100D0C00840080015308263E840080010130D30703
:100D1C000318D40A0030D4075408803AFF008030FE
:100D2C007F02031D9B2E05305302031C792E0630C7
:100D3C00FD001330FC00B130FB00FB0BA32EFC0BB1
:100D4C00A32EFD0BA32EAA2E5924831203130614D3
:100D5C000630FD001330FC00B130FB00FB0BB42E51
:100D6C00FC0BB42EFD0BB42EBB2E59248312031393
:100D7C0086150630FD001330FC00B130FB00FB0B78
:100D8C00C52EFC0BC52EFD0BC52ECC2E5924831263
:100D9C00031306160630FD001330FC00B130FB00C7
:100DAC00FB0BD62EFC0BD62EFD0BD62EDD2E59248E
:100DBC008312031386160630FD001330FC00B1308D
:100DCC00FB00FB0BE72EFC0BE72EFD0BE72EEE2EAC
:100DDC0059248312031306170630FD001330FC0050
:100DEC00B130FB00FB0BF82EFC0BF82EFD0BF82E94
:100DFC00FF2E59248312031386170630FD0013307F
:100E0C00FC00B130FB00FB0B092FFC0B092FFD0B79
:100E1C00092F102F59240B30FD002630FC006630B2
:100E2C00FB00FB0B172FFC0B172FFD0B172F1E2F87
:100E3C008B178B17003083120313C6000030C500CC
:100E4C002530C4008030C300842562248312031330
:100E5C002008031D06142108031D06162208031D75
:100E6C0006162308031D86162408031D06172508DD
:100E7C00031D8617D301D4015408803AFF0080303B
:100E8C007F02031D4B2FFF3053020318A52F831233
:100E9C0003132008FB00FC0154087C06031D582F8B
:100EAC0053087B06031906102108FB00FC015408AB
:100EBC007C06031D632F53087B0603198611220839
:100ECC00FB00FC0154087C06031D6E2F53087B06A7
:100EDC00031906122308FB00FC0154087C06031DB1
:100EEC00792F53087B06031986122408FB00FC019A
:100EFC0054087C06031D842F53087B060319061324
:100F0C002508FB00FC0154087C06031D8F2F530899
:100F1C007B06031986130000013083120313D307D9
:100F2C000318D40A0030D4075408803AFF008030EC
:100F3C007F02031DA32FFF305302031C4D2F83127E
:100F4C000313D301D4015408803AFF0080307F0290
:100F5C00031DB22F0630530203182B2F83120313D9
:100F6C005308263E8400831380080319C22F5308AC
:100F7C00263E84000130800253082C3E8400000879
:100F8C00FB005308203E840000087B060319F92F50
:100F9C005308263E84008008031DF92F5308323E67
:100FAC0084000008FB005308263E84007B08800068
:100FBC005308203E84000008FB0053082C3E84009C
:100FCC000008FC007B087C020318F22F5308203E1B
:100FDC00840001308002F92F0130FB005308203EC1
:100FEC0084007B0880070130D3070318D40A003033
:040FFC00D407A92F3E
:02400E0040FF71
:00000001FF
